{
  "contractName": "Decentralized_Bank",
  "abi": [
    {
      "inputs": [],
      "stateMutability": "nonpayable",
      "type": "constructor"
    },
    {
      "inputs": [
        {
          "internalType": "uint256",
          "name": "amount",
          "type": "uint256"
        }
      ],
      "name": "addBalance",
      "outputs": [
        {
          "internalType": "uint256",
          "name": "",
          "type": "uint256"
        }
      ],
      "stateMutability": "nonpayable",
      "type": "function"
    },
    {
      "inputs": [],
      "name": "getBalance",
      "outputs": [
        {
          "internalType": "uint256",
          "name": "",
          "type": "uint256"
        }
      ],
      "stateMutability": "view",
      "type": "function",
      "constant": true
    },
    {
      "inputs": [
        {
          "internalType": "address",
          "name": "recipient",
          "type": "address"
        },
        {
          "internalType": "uint256",
          "name": "amount",
          "type": "uint256"
        }
      ],
      "name": "Transfer",
      "outputs": [],
      "stateMutability": "nonpayable",
      "type": "function"
    }
  ],
  "bytecode": "0x608060405234801561001057600080fd5b50336000806101000a81548173ffffffffffffffffffffffffffffffffffffffff021916908373ffffffffffffffffffffffffffffffffffffffff1602179055506107f5806100606000396000f3fe608060405234801561001057600080fd5b50600436106100415760003560e01c806312065fe01461004657806369ca02dd14610064578063d91921ed14610080575b600080fd5b61004e6100b0565b60405161005b9190610496565b60405180910390f35b61007e60048036038101906100799190610540565b6100f7565b005b61009a60048036038101906100959190610580565b6101f6565b6040516100a79190610496565b60405180910390f35b6000600160003373ffffffffffffffffffffffffffffffffffffffff1673ffffffffffffffffffffffffffffffffffffffff16815260200190815260200160002054905090565b8173ffffffffffffffffffffffffffffffffffffffff163373ffffffffffffffffffffffffffffffffffffffff1603610165576040517f08c379a000000000000000000000000000000000000000000000000000000000815260040161015c9061060a565b60405180910390fd5b80600160003373ffffffffffffffffffffffffffffffffffffffff1673ffffffffffffffffffffffffffffffffffffffff1681526020019081526020016000205410156101e7576040517f08c379a00000000000000000000000000000000000000000000000000000000081526004016101de9061069c565b60405180910390fd5b6101f233838361035c565b5050565b60008060009054906101000a900473ffffffffffffffffffffffffffffffffffffffff1673ffffffffffffffffffffffffffffffffffffffff163373ffffffffffffffffffffffffffffffffffffffff1614610287576040517f08c379a000000000000000000000000000000000000000000000000000000000815260040161027e90610708565b60405180910390fd5b81600160003373ffffffffffffffffffffffffffffffffffffffff1673ffffffffffffffffffffffffffffffffffffffff168152602001908152602001600020546102d29190610757565b600160003373ffffffffffffffffffffffffffffffffffffffff1673ffffffffffffffffffffffffffffffffffffffff16815260200190815260200160002081905550600160003373ffffffffffffffffffffffffffffffffffffffff1673ffffffffffffffffffffffffffffffffffffffff168152602001908152602001600020549050919050565b80600160008573ffffffffffffffffffffffffffffffffffffffff1673ffffffffffffffffffffffffffffffffffffffff168152602001908152602001600020546103a7919061078b565b600160008573ffffffffffffffffffffffffffffffffffffffff1673ffffffffffffffffffffffffffffffffffffffff1681526020019081526020016000208190555080600160008473ffffffffffffffffffffffffffffffffffffffff1673ffffffffffffffffffffffffffffffffffffffff168152602001908152602001600020546104359190610757565b600160008473ffffffffffffffffffffffffffffffffffffffff1673ffffffffffffffffffffffffffffffffffffffff16815260200190815260200160002081905550505050565b6000819050919050565b6104908161047d565b82525050565b60006020820190506104ab6000830184610487565b92915050565b600080fd5b600073ffffffffffffffffffffffffffffffffffffffff82169050919050565b60006104e1826104b6565b9050919050565b6104f1816104d6565b81146104fc57600080fd5b50565b60008135905061050e816104e8565b92915050565b61051d8161047d565b811461052857600080fd5b50565b60008135905061053a81610514565b92915050565b60008060408385031215610557576105566104b1565b5b6000610565858286016104ff565b92505060206105768582860161052b565b9150509250929050565b600060208284031215610596576105956104b1565b5b60006105a48482850161052b565b91505092915050565b600082825260208201905092915050565b7f43616e2774205472616e736665722021212053656c66204163636f756e742e00600082015250565b60006105f4601f836105ad565b91506105ff826105be565b602082019050919050565b60006020820190508181036000830152610623816105e7565b9050919050565b7f4e6f2c2057652043616e2774205472616e736665722e20496e7375666669636960008201527f656e742042616c616e6365202121000000000000000000000000000000000000602082015250565b6000610686602e836105ad565b91506106918261062a565b604082019050919050565b600060208201905081810360008301526106b581610679565b9050919050565b7f596573206974206973204f776e6572204163636f756e74202121000000000000600082015250565b60006106f2601a836105ad565b91506106fd826106bc565b602082019050919050565b60006020820190508181036000830152610721816106e5565b9050919050565b7f4e487b7100000000000000000000000000000000000000000000000000000000600052601160045260246000fd5b60006107628261047d565b915061076d8361047d565b925082820190508082111561078557610784610728565b5b92915050565b60006107968261047d565b91506107a18361047d565b92508282039050818111156107b9576107b8610728565b5b9291505056fea26469706673582212200ad2f04ee50231fcb40df77b08e8f47a9de719a9cc1c56e8f3f313e10ac13ef164736f6c63430008100033",
  "immutableReferences": {},
  "source": "// SPDX-License-Identifier: MIT\r\npragma solidity >=0.6.0 <0.9.0;\r\n\r\ncontract Decentralized_Bank\r\n{\r\n    address Owner;\r\n\r\n    // We are creating the Mapping for the Adding & Trasfer Amount in Account\r\n    mapping(address=>uint)Balance;\r\n\r\n    // constructor for the address of the Owner\r\n    constructor()\r\n    {\r\n        Owner = msg.sender;\r\n    }\r\n\r\n    // function for adding the Ethereum in Account\r\n    function addBalance(uint amount) public returns(uint)\r\n    {\r\n        // first we have to check the is it Owners Account or Not\r\n        require(msg.sender == Owner, \"Yes it is Owner Account !!\");\r\n        Balance[msg.sender] = Balance[msg.sender] + amount;\r\n\r\n        return Balance[msg.sender];\r\n    }\r\n\r\n    // function for Get the Balance from an Account\r\n    function getBalance() public view returns(uint)\r\n    {\r\n        return Balance[msg.sender];\r\n    }\r\n\r\n    // to transfer the Amount from Owner to Recipient\r\n    function Transfer(address recipient, uint amount) public\r\n    {\r\n        // check the Self account is or not\r\n        require(msg.sender != recipient, \"Can't Transfer !! Self Account.\");\r\n\r\n        // check the owner has balance is available or not\r\n        require(Balance[msg.sender] >= amount, \"No, We Can't Transfer. Insufficient Balance !!\");\r\n\r\n        _transfer(msg.sender, recipient, amount);\r\n    }\r\n\r\n    function _transfer(address From, address To, uint Amount) private\r\n    {\r\n        Balance[From] = Balance[From] - Amount;\r\n        Balance[To] = Balance[To] + Amount;\r\n    }\r\n\r\n}",
  "sourcePath": "F:\\Projects\\Deploy Using Truffle - Hardhat\\Deploy_The_Contract_Using_Truffle_Ganache\\contracts\\Decentralized_Bank.sol",
  "compiler": {
    "name": "solc",
    "version": "0.8.16+commit.07a7930e.Emscripten.clang"
  },
  "schemaVersion": "3.4.15",
  "updatedAt": "2023-09-02T06:44:27.867Z",
  "networkType": "ethereum",
  "devdoc": {
    "kind": "dev",
    "methods": {},
    "version": 1
  },
  "userdoc": {
    "kind": "user",
    "methods": {},
    "version": 1
  }
}